{
  "contractName": "ChallengeToken",
  "abi": [
    {
      "anonymous": false,
      "inputs": [
        {
          "indexed": false,
          "internalType": "address",
          "name": "previousAdmin",
          "type": "address"
        },
        {
          "indexed": false,
          "internalType": "address",
          "name": "newAdmin",
          "type": "address"
        }
      ],
      "name": "AdminChanged",
      "type": "event"
    },
    {
      "anonymous": false,
      "inputs": [
        {
          "indexed": true,
          "internalType": "address",
          "name": "owner",
          "type": "address"
        },
        {
          "indexed": true,
          "internalType": "address",
          "name": "spender",
          "type": "address"
        },
        {
          "indexed": false,
          "internalType": "uint256",
          "name": "value",
          "type": "uint256"
        }
      ],
      "name": "Approval",
      "type": "event"
    },
    {
      "anonymous": false,
      "inputs": [
        {
          "indexed": true,
          "internalType": "address",
          "name": "beacon",
          "type": "address"
        }
      ],
      "name": "BeaconUpgraded",
      "type": "event"
    },
    {
      "anonymous": false,
      "inputs": [
        {
          "indexed": true,
          "internalType": "address",
          "name": "previousOwner",
          "type": "address"
        },
        {
          "indexed": true,
          "internalType": "address",
          "name": "newOwner",
          "type": "address"
        }
      ],
      "name": "OwnershipTransferred",
      "type": "event"
    },
    {
      "anonymous": false,
      "inputs": [
        {
          "indexed": true,
          "internalType": "address",
          "name": "from",
          "type": "address"
        },
        {
          "indexed": true,
          "internalType": "address",
          "name": "to",
          "type": "address"
        },
        {
          "indexed": false,
          "internalType": "uint256",
          "name": "value",
          "type": "uint256"
        }
      ],
      "name": "Transfer",
      "type": "event"
    },
    {
      "anonymous": false,
      "inputs": [
        {
          "indexed": true,
          "internalType": "address",
          "name": "implementation",
          "type": "address"
        }
      ],
      "name": "Upgraded",
      "type": "event"
    },
    {
      "anonymous": false,
      "inputs": [
        {
          "indexed": false,
          "internalType": "address",
          "name": "caller",
          "type": "address"
        }
      ],
      "name": "upgradeabilityKilled",
      "type": "event"
    },
    {
      "inputs": [
        {
          "internalType": "address",
          "name": "owner",
          "type": "address"
        },
        {
          "internalType": "address",
          "name": "spender",
          "type": "address"
        }
      ],
      "name": "allowance",
      "outputs": [
        {
          "internalType": "uint256",
          "name": "",
          "type": "uint256"
        }
      ],
      "stateMutability": "view",
      "type": "function",
      "constant": true
    },
    {
      "inputs": [
        {
          "internalType": "address",
          "name": "spender",
          "type": "address"
        },
        {
          "internalType": "uint256",
          "name": "amount",
          "type": "uint256"
        }
      ],
      "name": "approve",
      "outputs": [
        {
          "internalType": "bool",
          "name": "",
          "type": "bool"
        }
      ],
      "stateMutability": "nonpayable",
      "type": "function"
    },
    {
      "inputs": [
        {
          "internalType": "address",
          "name": "account",
          "type": "address"
        }
      ],
      "name": "balanceOf",
      "outputs": [
        {
          "internalType": "uint256",
          "name": "",
          "type": "uint256"
        }
      ],
      "stateMutability": "view",
      "type": "function",
      "constant": true
    },
    {
      "inputs": [],
      "name": "decimals",
      "outputs": [
        {
          "internalType": "uint8",
          "name": "",
          "type": "uint8"
        }
      ],
      "stateMutability": "view",
      "type": "function",
      "constant": true
    },
    {
      "inputs": [
        {
          "internalType": "address",
          "name": "spender",
          "type": "address"
        },
        {
          "internalType": "uint256",
          "name": "subtractedValue",
          "type": "uint256"
        }
      ],
      "name": "decreaseAllowance",
      "outputs": [
        {
          "internalType": "bool",
          "name": "",
          "type": "bool"
        }
      ],
      "stateMutability": "nonpayable",
      "type": "function"
    },
    {
      "inputs": [
        {
          "internalType": "address",
          "name": "spender",
          "type": "address"
        },
        {
          "internalType": "uint256",
          "name": "addedValue",
          "type": "uint256"
        }
      ],
      "name": "increaseAllowance",
      "outputs": [
        {
          "internalType": "bool",
          "name": "",
          "type": "bool"
        }
      ],
      "stateMutability": "nonpayable",
      "type": "function"
    },
    {
      "inputs": [],
      "name": "name",
      "outputs": [
        {
          "internalType": "string",
          "name": "",
          "type": "string"
        }
      ],
      "stateMutability": "view",
      "type": "function",
      "constant": true
    },
    {
      "inputs": [],
      "name": "owner",
      "outputs": [
        {
          "internalType": "address",
          "name": "",
          "type": "address"
        }
      ],
      "stateMutability": "view",
      "type": "function",
      "constant": true
    },
    {
      "inputs": [],
      "name": "renounceOwnership",
      "outputs": [],
      "stateMutability": "nonpayable",
      "type": "function"
    },
    {
      "inputs": [],
      "name": "symbol",
      "outputs": [
        {
          "internalType": "string",
          "name": "",
          "type": "string"
        }
      ],
      "stateMutability": "view",
      "type": "function",
      "constant": true
    },
    {
      "inputs": [],
      "name": "totalSupply",
      "outputs": [
        {
          "internalType": "uint256",
          "name": "",
          "type": "uint256"
        }
      ],
      "stateMutability": "view",
      "type": "function",
      "constant": true
    },
    {
      "inputs": [
        {
          "internalType": "address",
          "name": "recipient",
          "type": "address"
        },
        {
          "internalType": "uint256",
          "name": "amount",
          "type": "uint256"
        }
      ],
      "name": "transfer",
      "outputs": [
        {
          "internalType": "bool",
          "name": "",
          "type": "bool"
        }
      ],
      "stateMutability": "nonpayable",
      "type": "function"
    },
    {
      "inputs": [
        {
          "internalType": "address",
          "name": "sender",
          "type": "address"
        },
        {
          "internalType": "address",
          "name": "recipient",
          "type": "address"
        },
        {
          "internalType": "uint256",
          "name": "amount",
          "type": "uint256"
        }
      ],
      "name": "transferFrom",
      "outputs": [
        {
          "internalType": "bool",
          "name": "",
          "type": "bool"
        }
      ],
      "stateMutability": "nonpayable",
      "type": "function"
    },
    {
      "inputs": [
        {
          "internalType": "address",
          "name": "newOwner",
          "type": "address"
        }
      ],
      "name": "transferOwnership",
      "outputs": [],
      "stateMutability": "nonpayable",
      "type": "function"
    },
    {
      "inputs": [
        {
          "internalType": "address",
          "name": "newImplementation",
          "type": "address"
        }
      ],
      "name": "upgradeTo",
      "outputs": [],
      "stateMutability": "nonpayable",
      "type": "function"
    },
    {
      "inputs": [
        {
          "internalType": "address",
          "name": "newImplementation",
          "type": "address"
        },
        {
          "internalType": "bytes",
          "name": "data",
          "type": "bytes"
        }
      ],
      "name": "upgradeToAndCall",
      "outputs": [],
      "stateMutability": "payable",
      "type": "function",
      "payable": true
    },
    {
      "inputs": [],
      "name": "upgradeable",
      "outputs": [
        {
          "internalType": "bool",
          "name": "",
          "type": "bool"
        }
      ],
      "stateMutability": "view",
      "type": "function",
      "constant": true
    },
    {
      "stateMutability": "payable",
      "type": "receive",
      "payable": true
    },
    {
      "inputs": [],
      "name": "initialize",
      "outputs": [],
      "stateMutability": "nonpayable",
      "type": "function"
    },
    {
      "inputs": [],
      "name": "killUpgradeability",
      "outputs": [
        {
          "internalType": "bool",
          "name": "success",
          "type": "bool"
        }
      ],
      "stateMutability": "nonpayable",
      "type": "function"
    }
  ],
  "bytecode": "0x608060405234801561001057600080fd5b5061307e806100206000396000f3fe6080604052600436106101185760003560e01c806370a08231116100a0578063a457c2d711610064578063a457c2d714610397578063a9059cbb146103d4578063d5d756d014610411578063dd62ed3e1461043c578063f2fde38b1461047957610129565b806370a08231146102d6578063715018a6146103135780638129fc1c1461032a5780638da5cb5b1461034157806395d89b411461036c57610129565b8063313ce567116100e7578063313ce567146101fe5780633659cfe614610229578063395093511461025257806341c20c8e1461028f5780634f1ef286146102ba57610129565b806306fdde031461012e578063095ea7b31461015957806318160ddd1461019657806323b872dd146101c157610129565b366101295761012733346104a2565b005b600080fd5b34801561013a57600080fd5b50610143610603565b60405161015091906126dc565b60405180910390f35b34801561016557600080fd5b50610180600480360381019061017b919061239c565b610695565b60405161018d91906126c1565b60405180910390f35b3480156101a257600080fd5b506101ab6106b3565b6040516101b891906128de565b60405180910390f35b3480156101cd57600080fd5b506101e860048036038101906101e391906122ed565b6106bd565b6040516101f591906126c1565b60405180910390f35b34801561020a57600080fd5b506102136107b5565b60405161022091906128f9565b60405180910390f35b34801561023557600080fd5b50610250600480360381019061024b9190612280565b6107be565b005b34801561025e57600080fd5b506102796004803603810190610274919061239c565b6107e5565b60405161028691906126c1565b60405180910390f35b34801561029b57600080fd5b506102a4610891565b6040516102b191906126c1565b60405180910390f35b6102d460048036038101906102cf9190612340565b6108a4565b005b3480156102e257600080fd5b506102fd60048036038101906102f89190612280565b6108bd565b60405161030a91906128de565b60405180910390f35b34801561031f57600080fd5b50610328610906565b005b34801561033657600080fd5b5061033f61098e565b005b34801561034d57600080fd5b50610356610b06565b60405161036391906126a6565b60405180910390f35b34801561037857600080fd5b50610381610b30565b60405161038e91906126dc565b60405180910390f35b3480156103a357600080fd5b506103be60048036038101906103b9919061239c565b610bc2565b6040516103cb91906126c1565b60405180910390f35b3480156103e057600080fd5b506103fb60048036038101906103f6919061239c565b610cad565b60405161040891906126c1565b60405180910390f35b34801561041d57600080fd5b50610426610ccb565b60405161043391906126c1565b60405180910390f35b34801561044857600080fd5b50610463600480360381019061045e91906122ad565b610df1565b60405161047091906128de565b60405180910390f35b34801561048557600080fd5b506104a0600480360381019061049b9190612280565b610e78565b005b600073ffffffffffffffffffffffffffffffffffffffff168273ffffffffffffffffffffffffffffffffffffffff161415610512576040517f08c379a0000000000000000000000000000000000000000000000000000000008152600401610509906128be565b60405180910390fd5b61051e60008383610f70565b8060356000828254610530919061299c565b9250508190555080603360008473ffffffffffffffffffffffffffffffffffffffff1673ffffffffffffffffffffffffffffffffffffffff1681526020019081526020016000206000828254610586919061299c565b925050819055508173ffffffffffffffffffffffffffffffffffffffff16600073ffffffffffffffffffffffffffffffffffffffff167fddf252ad1be2c89b69c2b068fc378daa952ba7f163c4a11628f55a4df523b3ef836040516105eb91906128de565b60405180910390a36105ff60008383610f75565b5050565b60606036805461061290612a89565b80601f016020809104026020016040519081016040528092919081815260200182805461063e90612a89565b801561068b5780601f106106605761010080835404028352916020019161068b565b820191906000526020600020905b81548152906001019060200180831161066e57829003601f168201915b5050505050905090565b60006106a96106a2610f7a565b8484610f82565b6001905092915050565b6000603554905090565b60006106ca84848461114d565b6000603460008673ffffffffffffffffffffffffffffffffffffffff1673ffffffffffffffffffffffffffffffffffffffff1681526020019081526020016000206000610715610f7a565b73ffffffffffffffffffffffffffffffffffffffff1673ffffffffffffffffffffffffffffffffffffffff16815260200190815260200160002054905082811015610795576040517f08c379a000000000000000000000000000000000000000000000000000000000815260040161078c906127fe565b60405180910390fd5b6107a9856107a1610f7a565b858403610f82565b60019150509392505050565b60006012905090565b6107c7816113d1565b6107e28160405180602001604052806000815250600061149f565b50565b60006108876107f2610f7a565b848460346000610800610f7a565b73ffffffffffffffffffffffffffffffffffffffff1673ffffffffffffffffffffffffffffffffffffffff16815260200190815260200160002060008873ffffffffffffffffffffffffffffffffffffffff1673ffffffffffffffffffffffffffffffffffffffff16815260200190815260200160002054610882919061299c565b610f82565b6001905092915050565b60fb60009054906101000a900460ff1681565b6108ad826113d1565b6108b98282600161149f565b5050565b6000603360008373ffffffffffffffffffffffffffffffffffffffff1673ffffffffffffffffffffffffffffffffffffffff168152602001908152602001600020549050919050565b61090e610f7a565b73ffffffffffffffffffffffffffffffffffffffff1661092c610b06565b73ffffffffffffffffffffffffffffffffffffffff1614610982576040517f08c379a00000000000000000000000000000000000000000000000000000000081526004016109799061281e565b60405180910390fd5b61098c6000611670565b565b600060019054906101000a900460ff16806109b4575060008054906101000a900460ff16155b6109f3576040517f08c379a00000000000000000000000000000000000000000000000000000000081526004016109ea906127be565b60405180910390fd5b60008060019054906101000a900460ff161590508015610a43576001600060016101000a81548160ff02191690831515021790555060016000806101000a81548160ff0219169083151502179055505b610ab76040518060400160405280600e81526020017f4368616c6c656e6765546f6b656e0000000000000000000000000000000000008152506040518060400160405280600381526020017f43544b0000000000000000000000000000000000000000000000000000000000815250611736565b610abf611823565b610ac761190c565b600160fb60006101000a81548160ff0219169083151502179055508015610b035760008060016101000a81548160ff0219169083151502179055505b50565b6000606560009054906101000a900473ffffffffffffffffffffffffffffffffffffffff16905090565b606060378054610b3f90612a89565b80601f0160208091040260200160405190810160405280929190818152602001828054610b6b90612a89565b8015610bb85780601f10610b8d57610100808354040283529160200191610bb8565b820191906000526020600020905b815481529060010190602001808311610b9b57829003601f168201915b5050505050905090565b60008060346000610bd1610f7a565b73ffffffffffffffffffffffffffffffffffffffff1673ffffffffffffffffffffffffffffffffffffffff16815260200190815260200160002060008573ffffffffffffffffffffffffffffffffffffffff1673ffffffffffffffffffffffffffffffffffffffff16815260200190815260200160002054905082811015610c8e576040517f08c379a0000000000000000000000000000000000000000000000000000000008152600401610c859061289e565b60405180910390fd5b610ca2610c99610f7a565b85858403610f82565b600191505092915050565b6000610cc1610cba610f7a565b848461114d565b6001905092915050565b6000610cd5610f7a565b73ffffffffffffffffffffffffffffffffffffffff16610cf3610b06565b73ffffffffffffffffffffffffffffffffffffffff1614610d49576040517f08c379a0000000000000000000000000000000000000000000000000000000008152600401610d409061281e565b60405180910390fd5b60fb60009054906101000a900460ff16610d98576040517f08c379a0000000000000000000000000000000000000000000000000000000008152600401610d8f9061279e565b60405180910390fd5b600060fb60006101000a81548160ff0219169083151502179055507fecb100fafc69398de5aa82ae10117285e292c79404ef7a0adc4836fd7259523533604051610de291906126a6565b60405180910390a16001905090565b6000603460008473ffffffffffffffffffffffffffffffffffffffff1673ffffffffffffffffffffffffffffffffffffffff16815260200190815260200160002060008373ffffffffffffffffffffffffffffffffffffffff1673ffffffffffffffffffffffffffffffffffffffff16815260200190815260200160002054905092915050565b610e80610f7a565b73ffffffffffffffffffffffffffffffffffffffff16610e9e610b06565b73ffffffffffffffffffffffffffffffffffffffff1614610ef4576040517f08c379a0000000000000000000000000000000000000000000000000000000008152600401610eeb9061281e565b60405180910390fd5b600073ffffffffffffffffffffffffffffffffffffffff168173ffffffffffffffffffffffffffffffffffffffff161415610f64576040517f08c379a0000000000000000000000000000000000000000000000000000000008152600401610f5b9061273e565b60405180910390fd5b610f6d81611670565b50565b505050565b505050565b600033905090565b600073ffffffffffffffffffffffffffffffffffffffff168373ffffffffffffffffffffffffffffffffffffffff161415610ff2576040517f08c379a0000000000000000000000000000000000000000000000000000000008152600401610fe99061287e565b60405180910390fd5b600073ffffffffffffffffffffffffffffffffffffffff168273ffffffffffffffffffffffffffffffffffffffff161415611062576040517f08c379a00000000000000000000000000000000000000000000000000000000081526004016110599061275e565b60405180910390fd5b80603460008573ffffffffffffffffffffffffffffffffffffffff1673ffffffffffffffffffffffffffffffffffffffff16815260200190815260200160002060008473ffffffffffffffffffffffffffffffffffffffff1673ffffffffffffffffffffffffffffffffffffffff168152602001908152602001600020819055508173ffffffffffffffffffffffffffffffffffffffff168373ffffffffffffffffffffffffffffffffffffffff167f8c5be1e5ebec7d5bd14f71427d1e84f3dd0314c0f7b2291e5b200ac8c7c3b9258360405161114091906128de565b60405180910390a3505050565b600073ffffffffffffffffffffffffffffffffffffffff168373ffffffffffffffffffffffffffffffffffffffff1614156111bd576040517f08c379a00000000000000000000000000000000000000000000000000000000081526004016111b49061285e565b60405180910390fd5b600073ffffffffffffffffffffffffffffffffffffffff168273ffffffffffffffffffffffffffffffffffffffff16141561122d576040517f08c379a0000000000000000000000000000000000000000000000000000000008152600401611224906126fe565b60405180910390fd5b611238838383610f70565b6000603360008573ffffffffffffffffffffffffffffffffffffffff1673ffffffffffffffffffffffffffffffffffffffff168152602001908152602001600020549050818110156112bf576040517f08c379a00000000000000000000000000000000000000000000000000000000081526004016112b69061277e565b60405180910390fd5b818103603360008673ffffffffffffffffffffffffffffffffffffffff1673ffffffffffffffffffffffffffffffffffffffff1681526020019081526020016000208190555081603360008573ffffffffffffffffffffffffffffffffffffffff1673ffffffffffffffffffffffffffffffffffffffff1681526020019081526020016000206000828254611354919061299c565b925050819055508273ffffffffffffffffffffffffffffffffffffffff168473ffffffffffffffffffffffffffffffffffffffff167fddf252ad1be2c89b69c2b068fc378daa952ba7f163c4a11628f55a4df523b3ef846040516113b891906128de565b60405180910390a36113cb848484610f75565b50505050565b6113d9610f7a565b73ffffffffffffffffffffffffffffffffffffffff166113f7610b06565b73ffffffffffffffffffffffffffffffffffffffff161461144d576040517f08c379a00000000000000000000000000000000000000000000000000000000081526004016114449061281e565b60405180910390fd5b60fb60009054906101000a900460ff1661149c576040517f08c379a00000000000000000000000000000000000000000000000000000000081526004016114939061279e565b60405180910390fd5b50565b60006114a96119f5565b90506114b484611a4c565b6000835111806114c15750815b156114d2576114d08484611b05565b505b60006115007f4910fdfa16fed3260ed0e7147f7cc6da11a60208b5b9406d12a635614ffd914360001b611be9565b90508060000160009054906101000a900460ff166116695760018160000160006101000a81548160ff0219169083151502179055506115cc858360405160240161154a91906126a6565b6040516020818303038152906040527f3659cfe6000000000000000000000000000000000000000000000000000000007bffffffffffffffffffffffffffffffffffffffffffffffffffffffff19166020820180517bffffffffffffffffffffffffffffffffffffffffffffffffffffffff8381831617835250505050611b05565b5060008160000160006101000a81548160ff0219169083151502179055506115f26119f5565b73ffffffffffffffffffffffffffffffffffffffff168273ffffffffffffffffffffffffffffffffffffffff161461165f576040517f08c379a00000000000000000000000000000000000000000000000000000000081526004016116569061271e565b60405180910390fd5b61166885611bf3565b5b5050505050565b6000606560009054906101000a900473ffffffffffffffffffffffffffffffffffffffff16905081606560006101000a81548173ffffffffffffffffffffffffffffffffffffffff021916908373ffffffffffffffffffffffffffffffffffffffff1602179055508173ffffffffffffffffffffffffffffffffffffffff168173ffffffffffffffffffffffffffffffffffffffff167f8be0079c531659141344cd1fd0a4f28419497f9722a3daafe3b4186f6b6457e060405160405180910390a35050565b600060019054906101000a900460ff168061175c575060008054906101000a900460ff16155b61179b576040517f08c379a0000000000000000000000000000000000000000000000000000000008152600401611792906127be565b60405180910390fd5b60008060019054906101000a900460ff1615905080156117eb576001600060016101000a81548160ff02191690831515021790555060016000806101000a81548160ff0219169083151502179055505b6117f3611c42565b6117fd8383611d1b565b801561181e5760008060016101000a81548160ff0219169083151502179055505b505050565b600060019054906101000a900460ff1680611849575060008054906101000a900460ff16155b611888576040517f08c379a000000000000000000000000000000000000000000000000000000000815260040161187f906127be565b60405180910390fd5b60008060019054906101000a900460ff1615905080156118d8576001600060016101000a81548160ff02191690831515021790555060016000806101000a81548160ff0219169083151502179055505b6118e0611c42565b6118e8611e24565b80156119095760008060016101000a81548160ff0219169083151502179055505b50565b600060019054906101000a900460ff1680611932575060008054906101000a900460ff16155b611971576040517f08c379a0000000000000000000000000000000000000000000000000000000008152600401611968906127be565b60405180910390fd5b60008060019054906101000a900460ff1615905080156119c1576001600060016101000a81548160ff02191690831515021790555060016000806101000a81548160ff0219169083151502179055505b6119c9611f0d565b6119d1611fe6565b80156119f25760008060016101000a81548160ff0219169083151502179055505b50565b6000611a237f360894a13ba1a3210667c828492db98dca3e2076cc3735a920a3ca505d382bbc60001b6120bf565b60000160009054906101000a900473ffffffffffffffffffffffffffffffffffffffff16905090565b611a55816120c9565b611a94576040517f08c379a0000000000000000000000000000000000000000000000000000000008152600401611a8b906127de565b60405180910390fd5b80611ac17f360894a13ba1a3210667c828492db98dca3e2076cc3735a920a3ca505d382bbc60001b6120bf565b60000160006101000a81548173ffffffffffffffffffffffffffffffffffffffff021916908373ffffffffffffffffffffffffffffffffffffffff16021790555050565b6060611b10836120c9565b611b4f576040517f08c379a0000000000000000000000000000000000000000000000000000000008152600401611b469061283e565b60405180910390fd5b6000808473ffffffffffffffffffffffffffffffffffffffff1684604051611b77919061268f565b600060405180830381855af49150503d8060008114611bb2576040519150601f19603f3d011682016040523d82523d6000602084013e611bb7565b606091505b5091509150611bdf8282604051806060016040528060278152602001613022602791396120dc565b9250505092915050565b6000819050919050565b611bfc81611a4c565b8073ffffffffffffffffffffffffffffffffffffffff167fbc7cd75a20ee27fd9adebab32041f755214dbc6bffa90cc0225b39da2e5c2d3b60405160405180910390a250565b600060019054906101000a900460ff1680611c68575060008054906101000a900460ff16155b611ca7576040517f08c379a0000000000000000000000000000000000000000000000000000000008152600401611c9e906127be565b60405180910390fd5b60008060019054906101000a900460ff161590508015611cf7576001600060016101000a81548160ff02191690831515021790555060016000806101000a81548160ff0219169083151502179055505b8015611d185760008060016101000a81548160ff0219169083151502179055505b50565b600060019054906101000a900460ff1680611d41575060008054906101000a900460ff16155b611d80576040517f08c379a0000000000000000000000000000000000000000000000000000000008152600401611d77906127be565b60405180910390fd5b60008060019054906101000a900460ff161590508015611dd0576001600060016101000a81548160ff02191690831515021790555060016000806101000a81548160ff0219169083151502179055505b8260369080519060200190611de6929190612143565b508160379080519060200190611dfd929190612143565b508015611e1f5760008060016101000a81548160ff0219169083151502179055505b505050565b600060019054906101000a900460ff1680611e4a575060008054906101000a900460ff16155b611e89576040517f08c379a0000000000000000000000000000000000000000000000000000000008152600401611e80906127be565b60405180910390fd5b60008060019054906101000a900460ff161590508015611ed9576001600060016101000a81548160ff02191690831515021790555060016000806101000a81548160ff0219169083151502179055505b611ee9611ee4610f7a565b611670565b8015611f0a5760008060016101000a81548160ff0219169083151502179055505b50565b600060019054906101000a900460ff1680611f33575060008054906101000a900460ff16155b611f72576040517f08c379a0000000000000000000000000000000000000000000000000000000008152600401611f69906127be565b60405180910390fd5b60008060019054906101000a900460ff161590508015611fc2576001600060016101000a81548160ff02191690831515021790555060016000806101000a81548160ff0219169083151502179055505b8015611fe35760008060016101000a81548160ff0219169083151502179055505b50565b600060019054906101000a900460ff168061200c575060008054906101000a900460ff16155b61204b576040517f08c379a0000000000000000000000000000000000000000000000000000000008152600401612042906127be565b60405180910390fd5b60008060019054906101000a900460ff16159050801561209b576001600060016101000a81548160ff02191690831515021790555060016000806101000a81548160ff0219169083151502179055505b80156120bc5760008060016101000a81548160ff0219169083151502179055505b50565b6000819050919050565b600080823b905060008111915050919050565b606083156120ec5782905061213c565b6000835111156120ff5782518084602001fd5b816040517f08c379a000000000000000000000000000000000000000000000000000000000815260040161213391906126dc565b60405180910390fd5b9392505050565b82805461214f90612a89565b90600052602060002090601f01602090048101928261217157600085556121b8565b82601f1061218a57805160ff19168380011785556121b8565b828001600101855582156121b8579182015b828111156121b757825182559160200191906001019061219c565b5b5090506121c591906121c9565b5090565b5b808211156121e25760008160009055506001016121ca565b5090565b60006121f96121f484612939565b612914565b90508281526020810184848401111561221557612214612b7e565b5b612220848285612a47565b509392505050565b60008135905061223781612ff3565b92915050565b600082601f83011261225257612251612b79565b5b81356122628482602086016121e6565b91505092915050565b60008135905061227a8161300a565b92915050565b60006020828403121561229657612295612b88565b5b60006122a484828501612228565b91505092915050565b600080604083850312156122c4576122c3612b88565b5b60006122d285828601612228565b92505060206122e385828601612228565b9150509250929050565b60008060006060848603121561230657612305612b88565b5b600061231486828701612228565b935050602061232586828701612228565b92505060406123368682870161226b565b9150509250925092565b6000806040838503121561235757612356612b88565b5b600061236585828601612228565b925050602083013567ffffffffffffffff81111561238657612385612b83565b5b6123928582860161223d565b9150509250929050565b600080604083850312156123b3576123b2612b88565b5b60006123c185828601612228565b92505060206123d28582860161226b565b9150509250929050565b6123e5816129f2565b82525050565b6123f481612a04565b82525050565b60006124058261296a565b61240f8185612980565b935061241f818560208601612a56565b80840191505092915050565b600061243682612975565b612440818561298b565b9350612450818560208601612a56565b61245981612b8d565b840191505092915050565b600061247160238361298b565b915061247c82612b9e565b604082019050919050565b6000612494602f8361298b565b915061249f82612bed565b604082019050919050565b60006124b760268361298b565b91506124c282612c3c565b604082019050919050565b60006124da60228361298b565b91506124e582612c8b565b604082019050919050565b60006124fd60268361298b565b915061250882612cda565b604082019050919050565b600061252060308361298b565b915061252b82612d29565b604082019050919050565b6000612543602e8361298b565b915061254e82612d78565b604082019050919050565b6000612566602d8361298b565b915061257182612dc7565b604082019050919050565b600061258960288361298b565b915061259482612e16565b604082019050919050565b60006125ac60208361298b565b91506125b782612e65565b602082019050919050565b60006125cf60268361298b565b91506125da82612e8e565b604082019050919050565b60006125f260258361298b565b91506125fd82612edd565b604082019050919050565b600061261560248361298b565b915061262082612f2c565b604082019050919050565b600061263860258361298b565b915061264382612f7b565b604082019050919050565b600061265b601f8361298b565b915061266682612fca565b602082019050919050565b61267a81612a30565b82525050565b61268981612a3a565b82525050565b600061269b82846123fa565b915081905092915050565b60006020820190506126bb60008301846123dc565b92915050565b60006020820190506126d660008301846123eb565b92915050565b600060208201905081810360008301526126f6818461242b565b905092915050565b6000602082019050818103600083015261271781612464565b9050919050565b6000602082019050818103600083015261273781612487565b9050919050565b60006020820190508181036000830152612757816124aa565b9050919050565b60006020820190508181036000830152612777816124cd565b9050919050565b60006020820190508181036000830152612797816124f0565b9050919050565b600060208201905081810360008301526127b781612513565b9050919050565b600060208201905081810360008301526127d781612536565b9050919050565b600060208201905081810360008301526127f781612559565b9050919050565b600060208201905081810360008301526128178161257c565b9050919050565b600060208201905081810360008301526128378161259f565b9050919050565b60006020820190508181036000830152612857816125c2565b9050919050565b60006020820190508181036000830152612877816125e5565b9050919050565b6000602082019050818103600083015261289781612608565b9050919050565b600060208201905081810360008301526128b78161262b565b9050919050565b600060208201905081810360008301526128d78161264e565b9050919050565b60006020820190506128f36000830184612671565b92915050565b600060208201905061290e6000830184612680565b92915050565b600061291e61292f565b905061292a8282612abb565b919050565b6000604051905090565b600067ffffffffffffffff82111561295457612953612b4a565b5b61295d82612b8d565b9050602081019050919050565b600081519050919050565b600081519050919050565b600081905092915050565b600082825260208201905092915050565b60006129a782612a30565b91506129b283612a30565b9250827fffffffffffffffffffffffffffffffffffffffffffffffffffffffffffffffff038211156129e7576129e6612aec565b5b828201905092915050565b60006129fd82612a10565b9050919050565b60008115159050919050565b600073ffffffffffffffffffffffffffffffffffffffff82169050919050565b6000819050919050565b600060ff82169050919050565b82818337600083830152505050565b60005b83811015612a74578082015181840152602081019050612a59565b83811115612a83576000848401525b50505050565b60006002820490506001821680612aa157607f821691505b60208210811415612ab557612ab4612b1b565b5b50919050565b612ac482612b8d565b810181811067ffffffffffffffff82111715612ae357612ae2612b4a565b5b80604052505050565b7f4e487b7100000000000000000000000000000000000000000000000000000000600052601160045260246000fd5b7f4e487b7100000000000000000000000000000000000000000000000000000000600052602260045260246000fd5b7f4e487b7100000000000000000000000000000000000000000000000000000000600052604160045260246000fd5b600080fd5b600080fd5b600080fd5b600080fd5b6000601f19601f8301169050919050565b7f45524332303a207472616e7366657220746f20746865207a65726f206164647260008201527f6573730000000000000000000000000000000000000000000000000000000000602082015250565b7f45524331393637557067726164653a207570677261646520627265616b73206660008201527f7572746865722075706772616465730000000000000000000000000000000000602082015250565b7f4f776e61626c653a206e6577206f776e657220697320746865207a65726f206160008201527f6464726573730000000000000000000000000000000000000000000000000000602082015250565b7f45524332303a20617070726f766520746f20746865207a65726f20616464726560008201527f7373000000000000000000000000000000000000000000000000000000000000602082015250565b7f45524332303a207472616e7366657220616d6f756e742065786365656473206260008201527f616c616e63650000000000000000000000000000000000000000000000000000602082015250565b7f557067726164656162696c697479206f662074686520636f6e7472616374206860008201527f6173206265656e2064697361626c656400000000000000000000000000000000602082015250565b7f496e697469616c697a61626c653a20636f6e747261637420697320616c72656160008201527f647920696e697469616c697a6564000000000000000000000000000000000000602082015250565b7f455243313936373a206e657720696d706c656d656e746174696f6e206973206e60008201527f6f74206120636f6e747261637400000000000000000000000000000000000000602082015250565b7f45524332303a207472616e7366657220616d6f756e742065786365656473206160008201527f6c6c6f77616e6365000000000000000000000000000000000000000000000000602082015250565b7f4f776e61626c653a2063616c6c6572206973206e6f7420746865206f776e6572600082015250565b7f416464726573733a2064656c65676174652063616c6c20746f206e6f6e2d636f60008201527f6e74726163740000000000000000000000000000000000000000000000000000602082015250565b7f45524332303a207472616e736665722066726f6d20746865207a65726f20616460008201527f6472657373000000000000000000000000000000000000000000000000000000602082015250565b7f45524332303a20617070726f76652066726f6d20746865207a65726f2061646460008201527f7265737300000000000000000000000000000000000000000000000000000000602082015250565b7f45524332303a2064656372656173656420616c6c6f77616e63652062656c6f7760008201527f207a65726f000000000000000000000000000000000000000000000000000000602082015250565b7f45524332303a206d696e7420746f20746865207a65726f206164647265737300600082015250565b612ffc816129f2565b811461300757600080fd5b50565b61301381612a30565b811461301e57600080fd5b5056fe416464726573733a206c6f772d6c6576656c2064656c65676174652063616c6c206661696c6564a2646970667358221220f618db91de5e3c2c2f614d6f3fa52462e42a5602761b7c250e9a707e28b873df64736f6c63430008060033",
  "immutableReferences": {},
  "source": "// SPDX-License-Identifier: MIT\npragma solidity ^0.8.6;\n\nimport \"@openzeppelin/contracts-upgradeable/token/ERC20/ERC20Upgradeable.sol\";\nimport \"@openzeppelin/contracts-upgradeable/proxy/utils/Initializable.sol\";\nimport \"@openzeppelin/contracts-upgradeable/access/OwnableUpgradeable.sol\";\nimport \"@openzeppelin/contracts-upgradeable/proxy/utils/UUPSUpgradeable.sol\";\n\ncontract ChallengeToken is Initializable, ERC20Upgradeable, OwnableUpgradeable, UUPSUpgradeable {\n    bool public upgradeable;\n\n    event upgradeabilityKilled(address caller);\n\n    function initialize() initializer public {\n        __ERC20_init(\"ChallengeToken\", \"CTK\");\n        __Ownable_init();\n        __UUPSUpgradeable_init();\n        upgradeable = true;\n    }\n\n    modifier onlyUpgradeable{\n      require(upgradeable, \"Upgradeability of the contract has been disabled\");\n      _;\n    }\n\n    function _authorizeUpgrade(address newImplementation)\n        internal\n        override\n        onlyOwner\n        onlyUpgradeable\n    {}\n\n    function killUpgradeability() public onlyOwner onlyUpgradeable returns (bool success){\n      upgradeable = false;\n      emit upgradeabilityKilled(msg.sender);\n      return true;\n    }\n\n    receive() external payable{\n      _mint(msg.sender, msg.value);\n    }\n}",
  "sourcePath": "/Users/janturk/acala-solidity-challenge/contracts/ChallengeToken.sol",
  "compiler": {
    "name": "solc",
    "version": "0.8.6+commit.11564f7e.Emscripten.clang"
  },
  "schemaVersion": "3.3.2",
  "updatedAt": "2021-08-06T23:04:05.112Z",
  "networkType": "ethereum",
  "devdoc": {
    "kind": "dev",
    "methods": {
      "allowance(address,address)": {
        "details": "See {IERC20-allowance}."
      },
      "approve(address,uint256)": {
        "details": "See {IERC20-approve}. Requirements: - `spender` cannot be the zero address."
      },
      "balanceOf(address)": {
        "details": "See {IERC20-balanceOf}."
      },
      "decimals()": {
        "details": "Returns the number of decimals used to get its user representation. For example, if `decimals` equals `2`, a balance of `505` tokens should be displayed to a user as `5,05` (`505 / 10 ** 2`). Tokens usually opt for a value of 18, imitating the relationship between Ether and Wei. This is the value {ERC20} uses, unless this function is overridden; NOTE: This information is only used for _display_ purposes: it in no way affects any of the arithmetic of the contract, including {IERC20-balanceOf} and {IERC20-transfer}."
      },
      "decreaseAllowance(address,uint256)": {
        "details": "Atomically decreases the allowance granted to `spender` by the caller. This is an alternative to {approve} that can be used as a mitigation for problems described in {IERC20-approve}. Emits an {Approval} event indicating the updated allowance. Requirements: - `spender` cannot be the zero address. - `spender` must have allowance for the caller of at least `subtractedValue`."
      },
      "increaseAllowance(address,uint256)": {
        "details": "Atomically increases the allowance granted to `spender` by the caller. This is an alternative to {approve} that can be used as a mitigation for problems described in {IERC20-approve}. Emits an {Approval} event indicating the updated allowance. Requirements: - `spender` cannot be the zero address."
      },
      "name()": {
        "details": "Returns the name of the token."
      },
      "owner()": {
        "details": "Returns the address of the current owner."
      },
      "renounceOwnership()": {
        "details": "Leaves the contract without owner. It will not be possible to call `onlyOwner` functions anymore. Can only be called by the current owner. NOTE: Renouncing ownership will leave the contract without an owner, thereby removing any functionality that is only available to the owner."
      },
      "symbol()": {
        "details": "Returns the symbol of the token, usually a shorter version of the name."
      },
      "totalSupply()": {
        "details": "See {IERC20-totalSupply}."
      },
      "transfer(address,uint256)": {
        "details": "See {IERC20-transfer}. Requirements: - `recipient` cannot be the zero address. - the caller must have a balance of at least `amount`."
      },
      "transferFrom(address,address,uint256)": {
        "details": "See {IERC20-transferFrom}. Emits an {Approval} event indicating the updated allowance. This is not required by the EIP. See the note at the beginning of {ERC20}. Requirements: - `sender` and `recipient` cannot be the zero address. - `sender` must have a balance of at least `amount`. - the caller must have allowance for ``sender``'s tokens of at least `amount`."
      },
      "transferOwnership(address)": {
        "details": "Transfers ownership of the contract to a new account (`newOwner`). Can only be called by the current owner."
      },
      "upgradeTo(address)": {
        "details": "Upgrade the implementation of the proxy to `newImplementation`. Calls {_authorizeUpgrade}. Emits an {Upgraded} event."
      },
      "upgradeToAndCall(address,bytes)": {
        "details": "Upgrade the implementation of the proxy to `newImplementation`, and subsequently execute the function call encoded in `data`. Calls {_authorizeUpgrade}. Emits an {Upgraded} event."
      }
    },
    "version": 1
  },
  "userdoc": {
    "kind": "user",
    "methods": {},
    "version": 1
  }
}