{
  "contractName": "ChallengeTokenV2",
  "abi": [
    {
      "anonymous": false,
      "inputs": [
        {
          "indexed": false,
          "internalType": "address",
          "name": "previousAdmin",
          "type": "address"
        },
        {
          "indexed": false,
          "internalType": "address",
          "name": "newAdmin",
          "type": "address"
        }
      ],
      "name": "AdminChanged",
      "type": "event"
    },
    {
      "anonymous": false,
      "inputs": [
        {
          "indexed": true,
          "internalType": "address",
          "name": "owner",
          "type": "address"
        },
        {
          "indexed": true,
          "internalType": "address",
          "name": "spender",
          "type": "address"
        },
        {
          "indexed": false,
          "internalType": "uint256",
          "name": "value",
          "type": "uint256"
        }
      ],
      "name": "Approval",
      "type": "event"
    },
    {
      "anonymous": false,
      "inputs": [
        {
          "indexed": true,
          "internalType": "address",
          "name": "beacon",
          "type": "address"
        }
      ],
      "name": "BeaconUpgraded",
      "type": "event"
    },
    {
      "anonymous": false,
      "inputs": [
        {
          "indexed": true,
          "internalType": "address",
          "name": "previousOwner",
          "type": "address"
        },
        {
          "indexed": true,
          "internalType": "address",
          "name": "newOwner",
          "type": "address"
        }
      ],
      "name": "OwnershipTransferred",
      "type": "event"
    },
    {
      "anonymous": false,
      "inputs": [
        {
          "indexed": true,
          "internalType": "address",
          "name": "from",
          "type": "address"
        },
        {
          "indexed": true,
          "internalType": "address",
          "name": "to",
          "type": "address"
        },
        {
          "indexed": false,
          "internalType": "uint256",
          "name": "value",
          "type": "uint256"
        }
      ],
      "name": "Transfer",
      "type": "event"
    },
    {
      "anonymous": false,
      "inputs": [
        {
          "indexed": true,
          "internalType": "address",
          "name": "implementation",
          "type": "address"
        }
      ],
      "name": "Upgraded",
      "type": "event"
    },
    {
      "anonymous": false,
      "inputs": [
        {
          "indexed": false,
          "internalType": "address",
          "name": "caller",
          "type": "address"
        }
      ],
      "name": "upgradeabilityKilled",
      "type": "event"
    },
    {
      "inputs": [
        {
          "internalType": "address",
          "name": "owner",
          "type": "address"
        },
        {
          "internalType": "address",
          "name": "spender",
          "type": "address"
        }
      ],
      "name": "allowance",
      "outputs": [
        {
          "internalType": "uint256",
          "name": "",
          "type": "uint256"
        }
      ],
      "stateMutability": "view",
      "type": "function",
      "constant": true
    },
    {
      "inputs": [
        {
          "internalType": "address",
          "name": "spender",
          "type": "address"
        },
        {
          "internalType": "uint256",
          "name": "amount",
          "type": "uint256"
        }
      ],
      "name": "approve",
      "outputs": [
        {
          "internalType": "bool",
          "name": "",
          "type": "bool"
        }
      ],
      "stateMutability": "nonpayable",
      "type": "function"
    },
    {
      "inputs": [
        {
          "internalType": "address",
          "name": "account",
          "type": "address"
        }
      ],
      "name": "balanceOf",
      "outputs": [
        {
          "internalType": "uint256",
          "name": "",
          "type": "uint256"
        }
      ],
      "stateMutability": "view",
      "type": "function",
      "constant": true
    },
    {
      "inputs": [],
      "name": "decimals",
      "outputs": [
        {
          "internalType": "uint8",
          "name": "",
          "type": "uint8"
        }
      ],
      "stateMutability": "view",
      "type": "function",
      "constant": true
    },
    {
      "inputs": [
        {
          "internalType": "address",
          "name": "spender",
          "type": "address"
        },
        {
          "internalType": "uint256",
          "name": "subtractedValue",
          "type": "uint256"
        }
      ],
      "name": "decreaseAllowance",
      "outputs": [
        {
          "internalType": "bool",
          "name": "",
          "type": "bool"
        }
      ],
      "stateMutability": "nonpayable",
      "type": "function"
    },
    {
      "inputs": [
        {
          "internalType": "address",
          "name": "spender",
          "type": "address"
        },
        {
          "internalType": "uint256",
          "name": "addedValue",
          "type": "uint256"
        }
      ],
      "name": "increaseAllowance",
      "outputs": [
        {
          "internalType": "bool",
          "name": "",
          "type": "bool"
        }
      ],
      "stateMutability": "nonpayable",
      "type": "function"
    },
    {
      "inputs": [],
      "name": "initialize",
      "outputs": [],
      "stateMutability": "nonpayable",
      "type": "function"
    },
    {
      "inputs": [],
      "name": "killUpgradeability",
      "outputs": [
        {
          "internalType": "bool",
          "name": "success",
          "type": "bool"
        }
      ],
      "stateMutability": "nonpayable",
      "type": "function"
    },
    {
      "inputs": [],
      "name": "name",
      "outputs": [
        {
          "internalType": "string",
          "name": "",
          "type": "string"
        }
      ],
      "stateMutability": "view",
      "type": "function",
      "constant": true
    },
    {
      "inputs": [],
      "name": "owner",
      "outputs": [
        {
          "internalType": "address",
          "name": "",
          "type": "address"
        }
      ],
      "stateMutability": "view",
      "type": "function",
      "constant": true
    },
    {
      "inputs": [],
      "name": "percetnageOfEtherToRedeemWithBurning",
      "outputs": [
        {
          "internalType": "uint8",
          "name": "",
          "type": "uint8"
        }
      ],
      "stateMutability": "view",
      "type": "function",
      "constant": true
    },
    {
      "inputs": [],
      "name": "renounceOwnership",
      "outputs": [],
      "stateMutability": "nonpayable",
      "type": "function"
    },
    {
      "inputs": [],
      "name": "symbol",
      "outputs": [
        {
          "internalType": "string",
          "name": "",
          "type": "string"
        }
      ],
      "stateMutability": "view",
      "type": "function",
      "constant": true
    },
    {
      "inputs": [],
      "name": "totalSupply",
      "outputs": [
        {
          "internalType": "uint256",
          "name": "",
          "type": "uint256"
        }
      ],
      "stateMutability": "view",
      "type": "function",
      "constant": true
    },
    {
      "inputs": [
        {
          "internalType": "address",
          "name": "recipient",
          "type": "address"
        },
        {
          "internalType": "uint256",
          "name": "amount",
          "type": "uint256"
        }
      ],
      "name": "transfer",
      "outputs": [
        {
          "internalType": "bool",
          "name": "",
          "type": "bool"
        }
      ],
      "stateMutability": "nonpayable",
      "type": "function"
    },
    {
      "inputs": [
        {
          "internalType": "address",
          "name": "sender",
          "type": "address"
        },
        {
          "internalType": "address",
          "name": "recipient",
          "type": "address"
        },
        {
          "internalType": "uint256",
          "name": "amount",
          "type": "uint256"
        }
      ],
      "name": "transferFrom",
      "outputs": [
        {
          "internalType": "bool",
          "name": "",
          "type": "bool"
        }
      ],
      "stateMutability": "nonpayable",
      "type": "function"
    },
    {
      "inputs": [
        {
          "internalType": "address",
          "name": "newOwner",
          "type": "address"
        }
      ],
      "name": "transferOwnership",
      "outputs": [],
      "stateMutability": "nonpayable",
      "type": "function"
    },
    {
      "inputs": [
        {
          "internalType": "address",
          "name": "newImplementation",
          "type": "address"
        }
      ],
      "name": "upgradeTo",
      "outputs": [],
      "stateMutability": "nonpayable",
      "type": "function"
    },
    {
      "inputs": [
        {
          "internalType": "address",
          "name": "newImplementation",
          "type": "address"
        },
        {
          "internalType": "bytes",
          "name": "data",
          "type": "bytes"
        }
      ],
      "name": "upgradeToAndCall",
      "outputs": [],
      "stateMutability": "payable",
      "type": "function",
      "payable": true
    },
    {
      "inputs": [],
      "name": "upgradeable",
      "outputs": [
        {
          "internalType": "bool",
          "name": "",
          "type": "bool"
        }
      ],
      "stateMutability": "view",
      "type": "function",
      "constant": true
    },
    {
      "stateMutability": "payable",
      "type": "receive",
      "payable": true
    },
    {
      "inputs": [
        {
          "internalType": "uint8",
          "name": "_percentage",
          "type": "uint8"
        }
      ],
      "name": "setPercentageOfEtherToReddemWithBurning",
      "outputs": [
        {
          "internalType": "bool",
          "name": "success",
          "type": "bool"
        }
      ],
      "stateMutability": "nonpayable",
      "type": "function"
    },
    {
      "inputs": [
        {
          "internalType": "uint256",
          "name": "_amount",
          "type": "uint256"
        }
      ],
      "name": "burnTokens",
      "outputs": [
        {
          "internalType": "bool",
          "name": "success",
          "type": "bool"
        }
      ],
      "stateMutability": "nonpayable",
      "type": "function"
    }
  ],
  "bytecode": "0x608060405234801561001057600080fd5b506139b0806100206000396000f3fe6080604052600436106101395760003560e01c8063715018a6116100ab578063a457c2d71161006f578063a457c2d714610432578063a9059cbb1461046f578063d1c41864146104ac578063d5d756d0146104d7578063dd62ed3e14610502578063f2fde38b1461053f5761014a565b8063715018a6146103715780637fc73a98146103885780638129fc1c146103c55780638da5cb5b146103dc57806395d89b41146104075761014a565b80633659cfe6116100fd5780633659cfe61461024a578063395093511461027357806341c20c8e146102b05780634f1ef286146102db5780636d1b229d146102f757806370a08231146103345761014a565b806306fdde031461014f578063095ea7b31461017a57806318160ddd146101b757806323b872dd146101e2578063313ce5671461021f5761014a565b3661014a576101483334610568565b005b600080fd5b34801561015b57600080fd5b506101646106c9565b6040516101719190612d04565b60405180910390f35b34801561018657600080fd5b506101a1600480360381019061019c91906128bb565b61075b565b6040516101ae9190612ce9565b60405180910390f35b3480156101c357600080fd5b506101cc610779565b6040516101d99190612fa6565b60405180910390f35b3480156101ee57600080fd5b506102096004803603810190610204919061280c565b610783565b6040516102169190612ce9565b60405180910390f35b34801561022b57600080fd5b5061023461087b565b6040516102419190612fc1565b60405180910390f35b34801561025657600080fd5b50610271600480360381019061026c919061279f565b610884565b005b34801561027f57600080fd5b5061029a600480360381019061029591906128bb565b6108ab565b6040516102a79190612ce9565b60405180910390f35b3480156102bc57600080fd5b506102c5610957565b6040516102d29190612ce9565b60405180910390f35b6102f560048036038101906102f0919061285f565b61096a565b005b34801561030357600080fd5b5061031e600480360381019061031991906128fb565b610983565b60405161032b9190612ce9565b60405180910390f35b34801561034057600080fd5b5061035b6004803603810190610356919061279f565b610ae3565b6040516103689190612fa6565b60405180910390f35b34801561037d57600080fd5b50610386610b2c565b005b34801561039457600080fd5b506103af60048036038101906103aa9190612928565b610bb4565b6040516103bc9190612ce9565b60405180910390f35b3480156103d157600080fd5b506103da610cac565b005b3480156103e857600080fd5b506103f1610e24565b6040516103fe9190612cce565b60405180910390f35b34801561041357600080fd5b5061041c610e4e565b6040516104299190612d04565b60405180910390f35b34801561043e57600080fd5b50610459600480360381019061045491906128bb565b610ee0565b6040516104669190612ce9565b60405180910390f35b34801561047b57600080fd5b50610496600480360381019061049191906128bb565b610fcb565b6040516104a39190612ce9565b60405180910390f35b3480156104b857600080fd5b506104c1610fe9565b6040516104ce9190612fc1565b60405180910390f35b3480156104e357600080fd5b506104ec610ffc565b6040516104f99190612ce9565b60405180910390f35b34801561050e57600080fd5b50610529600480360381019061052491906127cc565b611122565b6040516105369190612fa6565b60405180910390f35b34801561054b57600080fd5b506105666004803603810190610561919061279f565b6111a9565b005b600073ffffffffffffffffffffffffffffffffffffffff168273ffffffffffffffffffffffffffffffffffffffff1614156105d8576040517f08c379a00000000000000000000000000000000000000000000000000000000081526004016105cf90612f86565b60405180910390fd5b6105e4600083836112a1565b80603560008282546105f69190613064565b9250508190555080603360008473ffffffffffffffffffffffffffffffffffffffff1673ffffffffffffffffffffffffffffffffffffffff168152602001908152602001600020600082825461064c9190613064565b925050819055508173ffffffffffffffffffffffffffffffffffffffff16600073ffffffffffffffffffffffffffffffffffffffff167fddf252ad1be2c89b69c2b068fc378daa952ba7f163c4a11628f55a4df523b3ef836040516106b19190612fa6565b60405180910390a36106c5600083836112a6565b5050565b6060603680546106d890613210565b80601f016020809104026020016040519081016040528092919081815260200182805461070490613210565b80156107515780601f1061072657610100808354040283529160200191610751565b820191906000526020600020905b81548152906001019060200180831161073457829003601f168201915b5050505050905090565b600061076f6107686112ab565b84846112b3565b6001905092915050565b6000603554905090565b600061079084848461147e565b6000603460008673ffffffffffffffffffffffffffffffffffffffff1673ffffffffffffffffffffffffffffffffffffffff16815260200190815260200160002060006107db6112ab565b73ffffffffffffffffffffffffffffffffffffffff1673ffffffffffffffffffffffffffffffffffffffff1681526020019081526020016000205490508281101561085b576040517f08c379a000000000000000000000000000000000000000000000000000000000815260040161085290612e86565b60405180910390fd5b61086f856108676112ab565b8584036112b3565b60019150509392505050565b60006012905090565b61088d81611702565b6108a8816040518060200160405280600081525060006117d0565b50565b600061094d6108b86112ab565b8484603460006108c66112ab565b73ffffffffffffffffffffffffffffffffffffffff1673ffffffffffffffffffffffffffffffffffffffff16815260200190815260200160002060008873ffffffffffffffffffffffffffffffffffffffff1673ffffffffffffffffffffffffffffffffffffffff168152602001908152602001600020546109489190613064565b6112b3565b6001905092915050565b60fb60009054906101000a900460ff1681565b61097382611702565b61097f828260016117d0565b5050565b60008060fb60019054906101000a900460ff1660ff1614156109da576040517f08c379a00000000000000000000000000000000000000000000000000000000081526004016109d190612d66565b60405180910390fd5b60fb60029054906101000a900460ff1615610a2a576040517f08c379a0000000000000000000000000000000000000000000000000000000008152600401610a2190612f46565b60405180910390fd5b600160fb60026101000a81548160ff021916908315150217905550610a4f33836119a1565b3373ffffffffffffffffffffffffffffffffffffffff166108fc606460fb60019054906101000a900460ff1660ff1685610a8991906130eb565b610a9391906130ba565b9081150290604051600060405180830381858888f19350505050158015610abe573d6000803e3d6000fd5b50600060fb60026101000a81548160ff02191690831515021790555060019050919050565b6000603360008373ffffffffffffffffffffffffffffffffffffffff1673ffffffffffffffffffffffffffffffffffffffff168152602001908152602001600020549050919050565b610b346112ab565b73ffffffffffffffffffffffffffffffffffffffff16610b52610e24565b73ffffffffffffffffffffffffffffffffffffffff1614610ba8576040517f08c379a0000000000000000000000000000000000000000000000000000000008152600401610b9f90612ea6565b60405180910390fd5b610bb26000611b7a565b565b6000610bbe6112ab565b73ffffffffffffffffffffffffffffffffffffffff16610bdc610e24565b73ffffffffffffffffffffffffffffffffffffffff1614610c32576040517f08c379a0000000000000000000000000000000000000000000000000000000008152600401610c2990612ea6565b60405180910390fd5b8160ff166000108015610c4957508160ff16606410155b610c88576040517f08c379a0000000000000000000000000000000000000000000000000000000008152600401610c7f90612e46565b60405180910390fd5b8160fb60016101000a81548160ff021916908360ff16021790555060019050919050565b600060019054906101000a900460ff1680610cd2575060008054906101000a900460ff16155b610d11576040517f08c379a0000000000000000000000000000000000000000000000000000000008152600401610d0890612e26565b60405180910390fd5b60008060019054906101000a900460ff161590508015610d61576001600060016101000a81548160ff02191690831515021790555060016000806101000a81548160ff0219169083151502179055505b610dd56040518060400160405280600e81526020017f4368616c6c656e6765546f6b656e0000000000000000000000000000000000008152506040518060400160405280600381526020017f43544b0000000000000000000000000000000000000000000000000000000000815250611c40565b610ddd611d2d565b610de5611e16565b600160fb60006101000a81548160ff0219169083151502179055508015610e215760008060016101000a81548160ff0219169083151502179055505b50565b6000606560009054906101000a900473ffffffffffffffffffffffffffffffffffffffff16905090565b606060378054610e5d90613210565b80601f0160208091040260200160405190810160405280929190818152602001828054610e8990613210565b8015610ed65780601f10610eab57610100808354040283529160200191610ed6565b820191906000526020600020905b815481529060010190602001808311610eb957829003601f168201915b5050505050905090565b60008060346000610eef6112ab565b73ffffffffffffffffffffffffffffffffffffffff1673ffffffffffffffffffffffffffffffffffffffff16815260200190815260200160002060008573ffffffffffffffffffffffffffffffffffffffff1673ffffffffffffffffffffffffffffffffffffffff16815260200190815260200160002054905082811015610fac576040517f08c379a0000000000000000000000000000000000000000000000000000000008152600401610fa390612f66565b60405180910390fd5b610fc0610fb76112ab565b858584036112b3565b600191505092915050565b6000610fdf610fd86112ab565b848461147e565b6001905092915050565b60fb60019054906101000a900460ff1681565b60006110066112ab565b73ffffffffffffffffffffffffffffffffffffffff16611024610e24565b73ffffffffffffffffffffffffffffffffffffffff161461107a576040517f08c379a000000000000000000000000000000000000000000000000000000000815260040161107190612ea6565b60405180910390fd5b60fb60009054906101000a900460ff166110c9576040517f08c379a00000000000000000000000000000000000000000000000000000000081526004016110c090612e06565b60405180910390fd5b600060fb60006101000a81548160ff0219169083151502179055507fecb100fafc69398de5aa82ae10117285e292c79404ef7a0adc4836fd72595235336040516111139190612cce565b60405180910390a16001905090565b6000603460008473ffffffffffffffffffffffffffffffffffffffff1673ffffffffffffffffffffffffffffffffffffffff16815260200190815260200160002060008373ffffffffffffffffffffffffffffffffffffffff1673ffffffffffffffffffffffffffffffffffffffff16815260200190815260200160002054905092915050565b6111b16112ab565b73ffffffffffffffffffffffffffffffffffffffff166111cf610e24565b73ffffffffffffffffffffffffffffffffffffffff1614611225576040517f08c379a000000000000000000000000000000000000000000000000000000000815260040161121c90612ea6565b60405180910390fd5b600073ffffffffffffffffffffffffffffffffffffffff168173ffffffffffffffffffffffffffffffffffffffff161415611295576040517f08c379a000000000000000000000000000000000000000000000000000000000815260040161128c90612da6565b60405180910390fd5b61129e81611b7a565b50565b505050565b505050565b600033905090565b600073ffffffffffffffffffffffffffffffffffffffff168373ffffffffffffffffffffffffffffffffffffffff161415611323576040517f08c379a000000000000000000000000000000000000000000000000000000000815260040161131a90612f26565b60405180910390fd5b600073ffffffffffffffffffffffffffffffffffffffff168273ffffffffffffffffffffffffffffffffffffffff161415611393576040517f08c379a000000000000000000000000000000000000000000000000000000000815260040161138a90612dc6565b60405180910390fd5b80603460008573ffffffffffffffffffffffffffffffffffffffff1673ffffffffffffffffffffffffffffffffffffffff16815260200190815260200160002060008473ffffffffffffffffffffffffffffffffffffffff1673ffffffffffffffffffffffffffffffffffffffff168152602001908152602001600020819055508173ffffffffffffffffffffffffffffffffffffffff168373ffffffffffffffffffffffffffffffffffffffff167f8c5be1e5ebec7d5bd14f71427d1e84f3dd0314c0f7b2291e5b200ac8c7c3b925836040516114719190612fa6565b60405180910390a3505050565b600073ffffffffffffffffffffffffffffffffffffffff168373ffffffffffffffffffffffffffffffffffffffff1614156114ee576040517f08c379a00000000000000000000000000000000000000000000000000000000081526004016114e590612f06565b60405180910390fd5b600073ffffffffffffffffffffffffffffffffffffffff168273ffffffffffffffffffffffffffffffffffffffff16141561155e576040517f08c379a000000000000000000000000000000000000000000000000000000000815260040161155590612d26565b60405180910390fd5b6115698383836112a1565b6000603360008573ffffffffffffffffffffffffffffffffffffffff1673ffffffffffffffffffffffffffffffffffffffff168152602001908152602001600020549050818110156115f0576040517f08c379a00000000000000000000000000000000000000000000000000000000081526004016115e790612de6565b60405180910390fd5b818103603360008673ffffffffffffffffffffffffffffffffffffffff1673ffffffffffffffffffffffffffffffffffffffff1681526020019081526020016000208190555081603360008573ffffffffffffffffffffffffffffffffffffffff1673ffffffffffffffffffffffffffffffffffffffff16815260200190815260200160002060008282546116859190613064565b925050819055508273ffffffffffffffffffffffffffffffffffffffff168473ffffffffffffffffffffffffffffffffffffffff167fddf252ad1be2c89b69c2b068fc378daa952ba7f163c4a11628f55a4df523b3ef846040516116e99190612fa6565b60405180910390a36116fc8484846112a6565b50505050565b61170a6112ab565b73ffffffffffffffffffffffffffffffffffffffff16611728610e24565b73ffffffffffffffffffffffffffffffffffffffff161461177e576040517f08c379a000000000000000000000000000000000000000000000000000000000815260040161177590612ea6565b60405180910390fd5b60fb60009054906101000a900460ff166117cd576040517f08c379a00000000000000000000000000000000000000000000000000000000081526004016117c490612e06565b60405180910390fd5b50565b60006117da611eff565b90506117e584611f56565b6000835111806117f25750815b1561180357611801848461200f565b505b60006118317f4910fdfa16fed3260ed0e7147f7cc6da11a60208b5b9406d12a635614ffd914360001b6120f3565b90508060000160009054906101000a900460ff1661199a5760018160000160006101000a81548160ff0219169083151502179055506118fd858360405160240161187b9190612cce565b6040516020818303038152906040527f3659cfe6000000000000000000000000000000000000000000000000000000007bffffffffffffffffffffffffffffffffffffffffffffffffffffffff19166020820180517bffffffffffffffffffffffffffffffffffffffffffffffffffffffff838183161783525050505061200f565b5060008160000160006101000a81548160ff021916908315150217905550611923611eff565b73ffffffffffffffffffffffffffffffffffffffff168273ffffffffffffffffffffffffffffffffffffffff1614611990576040517f08c379a000000000000000000000000000000000000000000000000000000000815260040161198790612d86565b60405180910390fd5b611999856120fd565b5b5050505050565b600073ffffffffffffffffffffffffffffffffffffffff168273ffffffffffffffffffffffffffffffffffffffff161415611a11576040517f08c379a0000000000000000000000000000000000000000000000000000000008152600401611a0890612ec6565b60405180910390fd5b611a1d826000836112a1565b6000603360008473ffffffffffffffffffffffffffffffffffffffff1673ffffffffffffffffffffffffffffffffffffffff16815260200190815260200160002054905081811015611aa4576040517f08c379a0000000000000000000000000000000000000000000000000000000008152600401611a9b90612d46565b60405180910390fd5b818103603360008573ffffffffffffffffffffffffffffffffffffffff1673ffffffffffffffffffffffffffffffffffffffff168152602001908152602001600020819055508160356000828254611afc9190613145565b92505081905550600073ffffffffffffffffffffffffffffffffffffffff168373ffffffffffffffffffffffffffffffffffffffff167fddf252ad1be2c89b69c2b068fc378daa952ba7f163c4a11628f55a4df523b3ef84604051611b619190612fa6565b60405180910390a3611b75836000846112a6565b505050565b6000606560009054906101000a900473ffffffffffffffffffffffffffffffffffffffff16905081606560006101000a81548173ffffffffffffffffffffffffffffffffffffffff021916908373ffffffffffffffffffffffffffffffffffffffff1602179055508173ffffffffffffffffffffffffffffffffffffffff168173ffffffffffffffffffffffffffffffffffffffff167f8be0079c531659141344cd1fd0a4f28419497f9722a3daafe3b4186f6b6457e060405160405180910390a35050565b600060019054906101000a900460ff1680611c66575060008054906101000a900460ff16155b611ca5576040517f08c379a0000000000000000000000000000000000000000000000000000000008152600401611c9c90612e26565b60405180910390fd5b60008060019054906101000a900460ff161590508015611cf5576001600060016101000a81548160ff02191690831515021790555060016000806101000a81548160ff0219169083151502179055505b611cfd61214c565b611d078383612225565b8015611d285760008060016101000a81548160ff0219169083151502179055505b505050565b600060019054906101000a900460ff1680611d53575060008054906101000a900460ff16155b611d92576040517f08c379a0000000000000000000000000000000000000000000000000000000008152600401611d8990612e26565b60405180910390fd5b60008060019054906101000a900460ff161590508015611de2576001600060016101000a81548160ff02191690831515021790555060016000806101000a81548160ff0219169083151502179055505b611dea61214c565b611df261232e565b8015611e135760008060016101000a81548160ff0219169083151502179055505b50565b600060019054906101000a900460ff1680611e3c575060008054906101000a900460ff16155b611e7b576040517f08c379a0000000000000000000000000000000000000000000000000000000008152600401611e7290612e26565b60405180910390fd5b60008060019054906101000a900460ff161590508015611ecb576001600060016101000a81548160ff02191690831515021790555060016000806101000a81548160ff0219169083151502179055505b611ed3612417565b611edb6124f0565b8015611efc5760008060016101000a81548160ff0219169083151502179055505b50565b6000611f2d7f360894a13ba1a3210667c828492db98dca3e2076cc3735a920a3ca505d382bbc60001b6125c9565b60000160009054906101000a900473ffffffffffffffffffffffffffffffffffffffff16905090565b611f5f816125d3565b611f9e576040517f08c379a0000000000000000000000000000000000000000000000000000000008152600401611f9590612e66565b60405180910390fd5b80611fcb7f360894a13ba1a3210667c828492db98dca3e2076cc3735a920a3ca505d382bbc60001b6125c9565b60000160006101000a81548173ffffffffffffffffffffffffffffffffffffffff021916908373ffffffffffffffffffffffffffffffffffffffff16021790555050565b606061201a836125d3565b612059576040517f08c379a000000000000000000000000000000000000000000000000000000000815260040161205090612ee6565b60405180910390fd5b6000808473ffffffffffffffffffffffffffffffffffffffff16846040516120819190612cb7565b600060405180830381855af49150503d80600081146120bc576040519150601f19603f3d011682016040523d82523d6000602084013e6120c1565b606091505b50915091506120e98282604051806060016040528060278152602001613954602791396125e6565b9250505092915050565b6000819050919050565b61210681611f56565b8073ffffffffffffffffffffffffffffffffffffffff167fbc7cd75a20ee27fd9adebab32041f755214dbc6bffa90cc0225b39da2e5c2d3b60405160405180910390a250565b600060019054906101000a900460ff1680612172575060008054906101000a900460ff16155b6121b1576040517f08c379a00000000000000000000000000000000000000000000000000000000081526004016121a890612e26565b60405180910390fd5b60008060019054906101000a900460ff161590508015612201576001600060016101000a81548160ff02191690831515021790555060016000806101000a81548160ff0219169083151502179055505b80156122225760008060016101000a81548160ff0219169083151502179055505b50565b600060019054906101000a900460ff168061224b575060008054906101000a900460ff16155b61228a576040517f08c379a000000000000000000000000000000000000000000000000000000000815260040161228190612e26565b60405180910390fd5b60008060019054906101000a900460ff1615905080156122da576001600060016101000a81548160ff02191690831515021790555060016000806101000a81548160ff0219169083151502179055505b82603690805190602001906122f092919061264d565b50816037908051906020019061230792919061264d565b5080156123295760008060016101000a81548160ff0219169083151502179055505b505050565b600060019054906101000a900460ff1680612354575060008054906101000a900460ff16155b612393576040517f08c379a000000000000000000000000000000000000000000000000000000000815260040161238a90612e26565b60405180910390fd5b60008060019054906101000a900460ff1615905080156123e3576001600060016101000a81548160ff02191690831515021790555060016000806101000a81548160ff0219169083151502179055505b6123f36123ee6112ab565b611b7a565b80156124145760008060016101000a81548160ff0219169083151502179055505b50565b600060019054906101000a900460ff168061243d575060008054906101000a900460ff16155b61247c576040517f08c379a000000000000000000000000000000000000000000000000000000000815260040161247390612e26565b60405180910390fd5b60008060019054906101000a900460ff1615905080156124cc576001600060016101000a81548160ff02191690831515021790555060016000806101000a81548160ff0219169083151502179055505b80156124ed5760008060016101000a81548160ff0219169083151502179055505b50565b600060019054906101000a900460ff1680612516575060008054906101000a900460ff16155b612555576040517f08c379a000000000000000000000000000000000000000000000000000000000815260040161254c90612e26565b60405180910390fd5b60008060019054906101000a900460ff1615905080156125a5576001600060016101000a81548160ff02191690831515021790555060016000806101000a81548160ff0219169083151502179055505b80156125c65760008060016101000a81548160ff0219169083151502179055505b50565b6000819050919050565b600080823b905060008111915050919050565b606083156125f657829050612646565b6000835111156126095782518084602001fd5b816040517f08c379a000000000000000000000000000000000000000000000000000000000815260040161263d9190612d04565b60405180910390fd5b9392505050565b82805461265990613210565b90600052602060002090601f01602090048101928261267b57600085556126c2565b82601f1061269457805160ff19168380011785556126c2565b828001600101855582156126c2579182015b828111156126c15782518255916020019190600101906126a6565b5b5090506126cf91906126d3565b5090565b5b808211156126ec5760008160009055506001016126d4565b5090565b60006127036126fe84613001565b612fdc565b90508281526020810184848401111561271f5761271e613334565b5b61272a8482856131ce565b509392505050565b6000813590506127418161390e565b92915050565b600082601f83011261275c5761275b61332f565b5b813561276c8482602086016126f0565b91505092915050565b60008135905061278481613925565b92915050565b6000813590506127998161393c565b92915050565b6000602082840312156127b5576127b461333e565b5b60006127c384828501612732565b91505092915050565b600080604083850312156127e3576127e261333e565b5b60006127f185828601612732565b925050602061280285828601612732565b9150509250929050565b6000806000606084860312156128255761282461333e565b5b600061283386828701612732565b935050602061284486828701612732565b925050604061285586828701612775565b9150509250925092565b600080604083850312156128765761287561333e565b5b600061288485828601612732565b925050602083013567ffffffffffffffff8111156128a5576128a4613339565b5b6128b185828601612747565b9150509250929050565b600080604083850312156128d2576128d161333e565b5b60006128e085828601612732565b92505060206128f185828601612775565b9150509250929050565b6000602082840312156129115761291061333e565b5b600061291f84828501612775565b91505092915050565b60006020828403121561293e5761293d61333e565b5b600061294c8482850161278a565b91505092915050565b61295e81613179565b82525050565b61296d8161318b565b82525050565b600061297e82613032565b6129888185613048565b93506129988185602086016131dd565b80840191505092915050565b60006129af8261303d565b6129b98185613053565b93506129c98185602086016131dd565b6129d281613343565b840191505092915050565b60006129ea602383613053565b91506129f582613354565b604082019050919050565b6000612a0d602283613053565b9150612a18826133a3565b604082019050919050565b6000612a30604083613053565b9150612a3b826133f2565b604082019050919050565b6000612a53602f83613053565b9150612a5e82613441565b604082019050919050565b6000612a76602683613053565b9150612a8182613490565b604082019050919050565b6000612a99602283613053565b9150612aa4826134df565b604082019050919050565b6000612abc602683613053565b9150612ac78261352e565b604082019050919050565b6000612adf603083613053565b9150612aea8261357d565b604082019050919050565b6000612b02602e83613053565b9150612b0d826135cc565b604082019050919050565b6000612b25602d83613053565b9150612b308261361b565b604082019050919050565b6000612b48602d83613053565b9150612b538261366a565b604082019050919050565b6000612b6b602883613053565b9150612b76826136b9565b604082019050919050565b6000612b8e602083613053565b9150612b9982613708565b602082019050919050565b6000612bb1602183613053565b9150612bbc82613731565b604082019050919050565b6000612bd4602683613053565b9150612bdf82613780565b604082019050919050565b6000612bf7602583613053565b9150612c02826137cf565b604082019050919050565b6000612c1a602483613053565b9150612c258261381e565b604082019050919050565b6000612c3d601a83613053565b9150612c488261386d565b602082019050919050565b6000612c60602583613053565b9150612c6b82613896565b604082019050919050565b6000612c83601f83613053565b9150612c8e826138e5565b602082019050919050565b612ca2816131b7565b82525050565b612cb1816131c1565b82525050565b6000612cc38284612973565b915081905092915050565b6000602082019050612ce36000830184612955565b92915050565b6000602082019050612cfe6000830184612964565b92915050565b60006020820190508181036000830152612d1e81846129a4565b905092915050565b60006020820190508181036000830152612d3f816129dd565b9050919050565b60006020820190508181036000830152612d5f81612a00565b9050919050565b60006020820190508181036000830152612d7f81612a23565b9050919050565b60006020820190508181036000830152612d9f81612a46565b9050919050565b60006020820190508181036000830152612dbf81612a69565b9050919050565b60006020820190508181036000830152612ddf81612a8c565b9050919050565b60006020820190508181036000830152612dff81612aaf565b9050919050565b60006020820190508181036000830152612e1f81612ad2565b9050919050565b60006020820190508181036000830152612e3f81612af5565b9050919050565b60006020820190508181036000830152612e5f81612b18565b9050919050565b60006020820190508181036000830152612e7f81612b3b565b9050919050565b60006020820190508181036000830152612e9f81612b5e565b9050919050565b60006020820190508181036000830152612ebf81612b81565b9050919050565b60006020820190508181036000830152612edf81612ba4565b9050919050565b60006020820190508181036000830152612eff81612bc7565b9050919050565b60006020820190508181036000830152612f1f81612bea565b9050919050565b60006020820190508181036000830152612f3f81612c0d565b9050919050565b60006020820190508181036000830152612f5f81612c30565b9050919050565b60006020820190508181036000830152612f7f81612c53565b9050919050565b60006020820190508181036000830152612f9f81612c76565b9050919050565b6000602082019050612fbb6000830184612c99565b92915050565b6000602082019050612fd66000830184612ca8565b92915050565b6000612fe6612ff7565b9050612ff28282613242565b919050565b6000604051905090565b600067ffffffffffffffff82111561301c5761301b613300565b5b61302582613343565b9050602081019050919050565b600081519050919050565b600081519050919050565b600081905092915050565b600082825260208201905092915050565b600061306f826131b7565b915061307a836131b7565b9250827fffffffffffffffffffffffffffffffffffffffffffffffffffffffffffffffff038211156130af576130ae613273565b5b828201905092915050565b60006130c5826131b7565b91506130d0836131b7565b9250826130e0576130df6132a2565b5b828204905092915050565b60006130f6826131b7565b9150613101836131b7565b9250817fffffffffffffffffffffffffffffffffffffffffffffffffffffffffffffffff048311821515161561313a57613139613273565b5b828202905092915050565b6000613150826131b7565b915061315b836131b7565b92508282101561316e5761316d613273565b5b828203905092915050565b600061318482613197565b9050919050565b60008115159050919050565b600073ffffffffffffffffffffffffffffffffffffffff82169050919050565b6000819050919050565b600060ff82169050919050565b82818337600083830152505050565b60005b838110156131fb5780820151818401526020810190506131e0565b8381111561320a576000848401525b50505050565b6000600282049050600182168061322857607f821691505b6020821081141561323c5761323b6132d1565b5b50919050565b61324b82613343565b810181811067ffffffffffffffff8211171561326a57613269613300565b5b80604052505050565b7f4e487b7100000000000000000000000000000000000000000000000000000000600052601160045260246000fd5b7f4e487b7100000000000000000000000000000000000000000000000000000000600052601260045260246000fd5b7f4e487b7100000000000000000000000000000000000000000000000000000000600052602260045260246000fd5b7f4e487b7100000000000000000000000000000000000000000000000000000000600052604160045260246000fd5b600080fd5b600080fd5b600080fd5b600080fd5b6000601f19601f8301169050919050565b7f45524332303a207472616e7366657220746f20746865207a65726f206164647260008201527f6573730000000000000000000000000000000000000000000000000000000000602082015250565b7f45524332303a206275726e20616d6f756e7420657863656564732062616c616e60008201527f6365000000000000000000000000000000000000000000000000000000000000602082015250565b7f506572636574616765206f6620457468657220746f207265636569766520776860008201527f656e206275726e696e6720746f6b656e73206973206e6f742079657420736574602082015250565b7f45524331393637557067726164653a207570677261646520627265616b73206660008201527f7572746865722075706772616465730000000000000000000000000000000000602082015250565b7f4f776e61626c653a206e6577206f776e657220697320746865207a65726f206160008201527f6464726573730000000000000000000000000000000000000000000000000000602082015250565b7f45524332303a20617070726f766520746f20746865207a65726f20616464726560008201527f7373000000000000000000000000000000000000000000000000000000000000602082015250565b7f45524332303a207472616e7366657220616d6f756e742065786365656473206260008201527f616c616e63650000000000000000000000000000000000000000000000000000602082015250565b7f557067726164656162696c697479206f662074686520636f6e7472616374206860008201527f6173206265656e2064697361626c656400000000000000000000000000000000602082015250565b7f496e697469616c697a61626c653a20636f6e747261637420697320616c72656160008201527f647920696e697469616c697a6564000000000000000000000000000000000000602082015250565b7f5f70657263656e746167652076616c75652068617320746f206265206265747760008201527f65656e203020616e642031303000000000000000000000000000000000000000602082015250565b7f455243313936373a206e657720696d706c656d656e746174696f6e206973206e60008201527f6f74206120636f6e747261637400000000000000000000000000000000000000602082015250565b7f45524332303a207472616e7366657220616d6f756e742065786365656473206160008201527f6c6c6f77616e6365000000000000000000000000000000000000000000000000602082015250565b7f4f776e61626c653a2063616c6c6572206973206e6f7420746865206f776e6572600082015250565b7f45524332303a206275726e2066726f6d20746865207a65726f2061646472657360008201527f7300000000000000000000000000000000000000000000000000000000000000602082015250565b7f416464726573733a2064656c65676174652063616c6c20746f206e6f6e2d636f60008201527f6e74726163740000000000000000000000000000000000000000000000000000602082015250565b7f45524332303a207472616e736665722066726f6d20746865207a65726f20616460008201527f6472657373000000000000000000000000000000000000000000000000000000602082015250565b7f45524332303a20617070726f76652066726f6d20746865207a65726f2061646460008201527f7265737300000000000000000000000000000000000000000000000000000000602082015250565b7f5265656e7472616e637920677561726420697320616374697665000000000000600082015250565b7f45524332303a2064656372656173656420616c6c6f77616e63652062656c6f7760008201527f207a65726f000000000000000000000000000000000000000000000000000000602082015250565b7f45524332303a206d696e7420746f20746865207a65726f206164647265737300600082015250565b61391781613179565b811461392257600080fd5b50565b61392e816131b7565b811461393957600080fd5b50565b613945816131c1565b811461395057600080fd5b5056fe416464726573733a206c6f772d6c6576656c2064656c65676174652063616c6c206661696c6564a2646970667358221220bc1fbb6a17b72a67f92ae6333893eee78a65ca2b8e02f843b530aece44c8572f64736f6c63430008060033",
  "immutableReferences": {},
  "source": "// SPDX-License-Identifier: MIT\npragma solidity =0.8.6;\n\nimport \"./ChallengeToken.sol\";\n\ncontract ChallengeTokenV2 is ChallengeToken {\n  uint8 public percetnageOfEtherToRedeemWithBurning;\n  bool reentrancyGuard;\n\n  function setPercentageOfEtherToReddemWithBurning(uint8 _percentage) public onlyOwner returns(bool success){\n    require(0 < _percentage && 100 >= _percentage, \"_percentage value has to be between 0 and 100\");\n    percetnageOfEtherToRedeemWithBurning = _percentage;\n    return true;\n  }\n\n  function burnTokens(uint256 _amount) public returns(bool success){\n    require(percetnageOfEtherToRedeemWithBurning != 0, \"Percetage of Ether to receive when burning tokens is not yet set\");\n    require(!reentrancyGuard, \"Reentrancy guard is active\");\n    reentrancyGuard = true;\n    _burn(msg.sender, _amount);\n    payable(msg.sender).transfer(_amount * uint256(percetnageOfEtherToRedeemWithBurning) / 100);\n    reentrancyGuard = false;\n    return true;\n  }\n}\n",
  "sourcePath": "/Users/janturk/acala-solidity-challenge/contracts/ChallengeTokenV2.sol",
  "compiler": {
    "name": "solc",
    "version": "0.8.6+commit.11564f7e.Emscripten.clang"
  },
  "schemaVersion": "3.3.2",
  "updatedAt": "2021-08-06T23:04:05.121Z",
  "networkType": "ethereum",
  "devdoc": {
    "kind": "dev",
    "methods": {
      "allowance(address,address)": {
        "details": "See {IERC20-allowance}."
      },
      "approve(address,uint256)": {
        "details": "See {IERC20-approve}. Requirements: - `spender` cannot be the zero address."
      },
      "balanceOf(address)": {
        "details": "See {IERC20-balanceOf}."
      },
      "decimals()": {
        "details": "Returns the number of decimals used to get its user representation. For example, if `decimals` equals `2`, a balance of `505` tokens should be displayed to a user as `5,05` (`505 / 10 ** 2`). Tokens usually opt for a value of 18, imitating the relationship between Ether and Wei. This is the value {ERC20} uses, unless this function is overridden; NOTE: This information is only used for _display_ purposes: it in no way affects any of the arithmetic of the contract, including {IERC20-balanceOf} and {IERC20-transfer}."
      },
      "decreaseAllowance(address,uint256)": {
        "details": "Atomically decreases the allowance granted to `spender` by the caller. This is an alternative to {approve} that can be used as a mitigation for problems described in {IERC20-approve}. Emits an {Approval} event indicating the updated allowance. Requirements: - `spender` cannot be the zero address. - `spender` must have allowance for the caller of at least `subtractedValue`."
      },
      "increaseAllowance(address,uint256)": {
        "details": "Atomically increases the allowance granted to `spender` by the caller. This is an alternative to {approve} that can be used as a mitigation for problems described in {IERC20-approve}. Emits an {Approval} event indicating the updated allowance. Requirements: - `spender` cannot be the zero address."
      },
      "name()": {
        "details": "Returns the name of the token."
      },
      "owner()": {
        "details": "Returns the address of the current owner."
      },
      "renounceOwnership()": {
        "details": "Leaves the contract without owner. It will not be possible to call `onlyOwner` functions anymore. Can only be called by the current owner. NOTE: Renouncing ownership will leave the contract without an owner, thereby removing any functionality that is only available to the owner."
      },
      "symbol()": {
        "details": "Returns the symbol of the token, usually a shorter version of the name."
      },
      "totalSupply()": {
        "details": "See {IERC20-totalSupply}."
      },
      "transfer(address,uint256)": {
        "details": "See {IERC20-transfer}. Requirements: - `recipient` cannot be the zero address. - the caller must have a balance of at least `amount`."
      },
      "transferFrom(address,address,uint256)": {
        "details": "See {IERC20-transferFrom}. Emits an {Approval} event indicating the updated allowance. This is not required by the EIP. See the note at the beginning of {ERC20}. Requirements: - `sender` and `recipient` cannot be the zero address. - `sender` must have a balance of at least `amount`. - the caller must have allowance for ``sender``'s tokens of at least `amount`."
      },
      "transferOwnership(address)": {
        "details": "Transfers ownership of the contract to a new account (`newOwner`). Can only be called by the current owner."
      },
      "upgradeTo(address)": {
        "details": "Upgrade the implementation of the proxy to `newImplementation`. Calls {_authorizeUpgrade}. Emits an {Upgraded} event."
      },
      "upgradeToAndCall(address,bytes)": {
        "details": "Upgrade the implementation of the proxy to `newImplementation`, and subsequently execute the function call encoded in `data`. Calls {_authorizeUpgrade}. Emits an {Upgraded} event."
      }
    },
    "version": 1
  },
  "userdoc": {
    "kind": "user",
    "methods": {},
    "version": 1
  }
}